8=FIX.4.4|9=75|35=A|34=100|SENDER1|52=20240101-10:10:00.001|TARGET1|98=0|108=60|10=178|

|repeating group|
8=FIX.4.4|9=182|35=W|49=SenderCompID|56=TargetCompID|34=2|52=20231126-12:34:56.789|55=EUR/USD|262=Snapshot001|268=3|269=0|270=1.0950|271=1000000|269=1|270=1.0948|271=2000000|269=2|270=1.0952|271=500000|10=128|
8=FIX.4.4|9=182|35=W|49=SenderCompID|56=TargetCompID|34=2|52=20231126-12:34:56.789|55=EUR/USD|262=Snapshot001|268=3|269=0|54=1|270=1.0950|271=1000000|269=1|270=1.0948|271=2000000|269=2|270=1.0952|271=500000|10=128|

Partial next:
8=FIX.4.4|9=148|35=D|34=101|SENDER1|52=20240101-04:04:04.444|TARGET1|44=1.123|11=012345678910|15=USD|21=2|38=7000|40=1|54=1|55=EUR/USD|60=20240101-04:04:04.404|
Non FIX Message Line
8=FIX.4.4|9=289|35=8|34=102|49=SENDER1|52=20240101-01:01:01.100|56=TARGET1|6=113.35|44=1.123|11=012345678910|14=4444|15=USD|17=10987654321|21=2|31=113.35|32=4000|37=10987654321|38=7000|39=1|40=1|54=1|55=EUR/USD|60=20240101-01:01:01.100|150=F|151=4000|453=1|448=PARTY|447=D|452=1|10=151|
Another Non FIX Message Line
Another Non FIX Message Line with 55 and 54 to translate
8=FIX.4.4|9=75|35=A|34=103|SENDER1|52=20240101-10:10:00.001|TARGET1|98=0|108=60|10=178|

Non FIX Message Line
8=FIX.4.4|9=289|35=8|34=104|49=SENDER1|52=20240101-01:01:01.100|56=TARGET1|6=113.35|44=1.123|11=012345678910|14=4444.44|15=USD|17=10987654321|21=2|31=113.35|32=4000|37=10987654321|38=7000|39=1|40=1|54=1|55=EUR/USD|60=20240101-01:01:01.100|150=F|151=4000|453=1|448=PARTY|447=D|452=1|10=151|
Another Non FIX Message Line with 55 and 54 to translate
8=FIX.4.4|9=75|35=A|34=105|SENDER1|52=20240101-10:10:00.001|TARGET1|98=0|108=60|10=178|

8=FIX.4.4|9=148|35=D|34=106|SENDER1|52=20240101-04:04:04.444|TARGET1|44=1.123|11=012345678910|15=USD|21=2|38=7000|40=1|54=1|55=EUR/USD|60=20240101-04:04:04.404|10=092|
Non FIX Message Line
Another Non FIX Message Line with 55 and 54 to translate

8=FIX.4.4|9=75|35=A|34=107|SENDER1|52=20240101-10:10:00.001|TARGET1|98=0|108=60|

8=FIX.4.4|9=148|35=D|34=108|SENDER1|52=20240101-04:04:04.444|TARGET1|44=1.123|11=012345678910|15=USD|21=2|38=7000|40=1|54=1|55=USD/KRW|60=20240101-04:04:04.404|10=092|

8=FIX.4.4|9=148|35=D|34=109|SENDER1|52=20240101-04:04:04.444|TARGET1|44=1.123|11=012345678910|15=USD|21=2|38=7000|40=1|54=1|55=USD/KRW|60=20240101-04:04:04.404|10=092|
Non FIX Message Line
8=FIX.4.4|9=289|35=8|34=110|49=SENDER1|52=20240101-01:01:01.100|56=TARGET1|6=113.35|44=1.123|11=012345678910|14=123.123|15=USD|17=10987654321|21=2|31=113.35|32=4000|37=10987654321|38=7000|39=1|40=1|54=1|55=USD/KRW|60=20240101-01:01:01.100|150=F|151=4000|453=1|448=PARTY|447=D|452=1|10=151|
Another Non FIX Message Line
8=FIX.4.4|9=75|35=A|34=111|SENDER1|52=20240101-10:10:00.001|TARGET1|98=0|108=60|10=178|

8=FIX.4.4|9=148|35=D|34=112|SENDER1|52=20240101-04:04:04.444|TARGET1|44=1.123|11=012345678910|15=USD|21=2|38=7000|40=1|54=1|55=EUR/USD|60=20240101-04:04:04.404|10=092|
Non FIX Message Line
8=FIX.4.4|9=289|35=8|34=113|49=SENDER1|52=20240101-01:01:01.100|56=TARGET1|6=113.35|44=1.123|11=012345678910|14=123.123|15=USD|17=10987654321|21=2|31=113.35|32=4000|37=10987654321|38=7000|39=1|40=1|54=1|55=EUR/USD|60=20240101-01:01:01.100|150=F|151=4000|453=1|448=PARTY|447=D|452=1|10=151|
Another Non FIX Message Line
8=FIX.4.4|9=75|35=A|34=115|SENDER1|52=20240101-10:10:00.001|TARGET1|98=0|108=60|10=178|

8=FIX.4.4|9=148|35=D|34=116|SENDER1|52=20240101-04:04:04.444|TARGET1|44=1.123|11=012345678910|15=USD|21=2|38=7000|40=1|54=1|55=EUR/USD|60=20240101-04:04:04.404|10=092|
Non FIX Message Line
8=FIX.4.4|9=289|35=8|34=117|49=SENDER1|52=20240101-01:01:01.100|56=TARGET1|6=113.35|44=1.123|11=012345678910|14=123.123|15=USD|17=10987654321|21=2|31=113.35|32=4000|37=10987654321|38=7000|39=1|40=1|54=1|55=EUR/USD|60=20240101-01:01:01.100|150=F|151=4000|453=1|448=PARTY|447=D|452=1|10=151|
Another Non FIX Message Line
8=FIX.4.4|9=75|35=A|34=118|SENDER1|52=20240101-10:10:00.001|TARGET1|98=0|108=60|10=178|
